{
    "_format": "hh-sol-artifact-1",
    "contractName": "SpecialNFT",
    "sourceName": "contracts/SpecialNFT.sol",
    "abi": [
        {
            "inputs": [],
            "stateMutability": "nonpayable",
            "type": "constructor"
        },
        {
            "anonymous": false,
            "inputs": [
                {
                    "indexed": true,
                    "internalType": "address",
                    "name": "owner",
                    "type": "address"
                },
                {
                    "indexed": true,
                    "internalType": "address",
                    "name": "approved",
                    "type": "address"
                },
                {
                    "indexed": true,
                    "internalType": "uint256",
                    "name": "tokenId",
                    "type": "uint256"
                }
            ],
            "name": "Approval",
            "type": "event"
        },
        {
            "anonymous": false,
            "inputs": [
                {
                    "indexed": true,
                    "internalType": "address",
                    "name": "owner",
                    "type": "address"
                },
                {
                    "indexed": true,
                    "internalType": "address",
                    "name": "operator",
                    "type": "address"
                },
                {
                    "indexed": false,
                    "internalType": "bool",
                    "name": "approved",
                    "type": "bool"
                }
            ],
            "name": "ApprovalForAll",
            "type": "event"
        },
        {
            "anonymous": false,
            "inputs": [
                {
                    "indexed": true,
                    "internalType": "address",
                    "name": "from",
                    "type": "address"
                },
                {
                    "indexed": true,
                    "internalType": "address",
                    "name": "to",
                    "type": "address"
                },
                {
                    "indexed": true,
                    "internalType": "uint256",
                    "name": "tokenId",
                    "type": "uint256"
                }
            ],
            "name": "Transfer",
            "type": "event"
        },
        {
            "inputs": [
                {
                    "internalType": "address",
                    "name": "to",
                    "type": "address"
                },
                {
                    "internalType": "uint256",
                    "name": "tokenId",
                    "type": "uint256"
                }
            ],
            "name": "approve",
            "outputs": [],
            "stateMutability": "nonpayable",
            "type": "function"
        },
        {
            "inputs": [
                {
                    "internalType": "address",
                    "name": "owner",
                    "type": "address"
                }
            ],
            "name": "balanceOf",
            "outputs": [
                {
                    "internalType": "uint256",
                    "name": "",
                    "type": "uint256"
                }
            ],
            "stateMutability": "view",
            "type": "function"
        },
        {
            "inputs": [
                {
                    "internalType": "uint256",
                    "name": "tokenId",
                    "type": "uint256"
                }
            ],
            "name": "getApproved",
            "outputs": [
                {
                    "internalType": "address",
                    "name": "",
                    "type": "address"
                }
            ],
            "stateMutability": "view",
            "type": "function"
        },
        {
            "inputs": [
                {
                    "internalType": "address",
                    "name": "owner",
                    "type": "address"
                },
                {
                    "internalType": "address",
                    "name": "operator",
                    "type": "address"
                }
            ],
            "name": "isApprovedForAll",
            "outputs": [
                {
                    "internalType": "bool",
                    "name": "",
                    "type": "bool"
                }
            ],
            "stateMutability": "view",
            "type": "function"
        },
        {
            "inputs": [
                {
                    "internalType": "string",
                    "name": "tokenURI",
                    "type": "string"
                }
            ],
            "name": "mintSpecialNFT",
            "outputs": [
                {
                    "internalType": "uint256",
                    "name": "",
                    "type": "uint256"
                }
            ],
            "stateMutability": "payable",
            "type": "function"
        },
        {
            "inputs": [],
            "name": "name",
            "outputs": [
                {
                    "internalType": "string",
                    "name": "",
                    "type": "string"
                }
            ],
            "stateMutability": "view",
            "type": "function"
        },
        {
            "inputs": [
                {
                    "internalType": "uint256",
                    "name": "tokenId",
                    "type": "uint256"
                }
            ],
            "name": "ownerOf",
            "outputs": [
                {
                    "internalType": "address",
                    "name": "",
                    "type": "address"
                }
            ],
            "stateMutability": "view",
            "type": "function"
        },
        {
            "inputs": [
                {
                    "internalType": "address",
                    "name": "from",
                    "type": "address"
                },
                {
                    "internalType": "address",
                    "name": "to",
                    "type": "address"
                },
                {
                    "internalType": "uint256",
                    "name": "tokenId",
                    "type": "uint256"
                }
            ],
            "name": "safeTransferFrom",
            "outputs": [],
            "stateMutability": "nonpayable",
            "type": "function"
        },
        {
            "inputs": [
                {
                    "internalType": "address",
                    "name": "from",
                    "type": "address"
                },
                {
                    "internalType": "address",
                    "name": "to",
                    "type": "address"
                },
                {
                    "internalType": "uint256",
                    "name": "tokenId",
                    "type": "uint256"
                },
                {
                    "internalType": "bytes",
                    "name": "_data",
                    "type": "bytes"
                }
            ],
            "name": "safeTransferFrom",
            "outputs": [],
            "stateMutability": "nonpayable",
            "type": "function"
        },
        {
            "inputs": [
                {
                    "internalType": "address",
                    "name": "operator",
                    "type": "address"
                },
                {
                    "internalType": "bool",
                    "name": "approved",
                    "type": "bool"
                }
            ],
            "name": "setApprovalForAll",
            "outputs": [],
            "stateMutability": "nonpayable",
            "type": "function"
        },
        {
            "inputs": [
                {
                    "internalType": "bytes4",
                    "name": "interfaceId",
                    "type": "bytes4"
                }
            ],
            "name": "supportsInterface",
            "outputs": [
                {
                    "internalType": "bool",
                    "name": "",
                    "type": "bool"
                }
            ],
            "stateMutability": "view",
            "type": "function"
        },
        {
            "inputs": [],
            "name": "symbol",
            "outputs": [
                {
                    "internalType": "string",
                    "name": "",
                    "type": "string"
                }
            ],
            "stateMutability": "view",
            "type": "function"
        },
        {
            "inputs": [
                {
                    "internalType": "uint256",
                    "name": "tokenId",
                    "type": "uint256"
                }
            ],
            "name": "tokenURI",
            "outputs": [
                {
                    "internalType": "string",
                    "name": "",
                    "type": "string"
                }
            ],
            "stateMutability": "view",
            "type": "function"
        },
        {
            "inputs": [
                {
                    "internalType": "address",
                    "name": "from",
                    "type": "address"
                },
                {
                    "internalType": "address",
                    "name": "to",
                    "type": "address"
                },
                {
                    "internalType": "uint256",
                    "name": "tokenId",
                    "type": "uint256"
                }
            ],
            "name": "transferFrom",
            "outputs": [],
            "stateMutability": "nonpayable",
            "type": "function"
        }
    ],
    "bytecode": "0x60806040526106176008553480156200001757600080fd5b50604080518082018252600a81526914dc1958da585b13919560b21b60208083019182528351808501909452600784526614995add14dbdb60ca1b908401528151919291620000699160009162000088565b5080516200007f90600190602084019062000088565b5050506200016b565b82805462000096906200012e565b90600052602060002090601f016020900481019282620000ba576000855562000105565b82601f10620000d557805160ff191683800117855562000105565b8280016001018555821562000105579182015b8281111562000105578251825591602001919060010190620000e8565b506200011392915062000117565b5090565b5b8082111562000113576000815560010162000118565b6002810460018216806200014357607f821691505b602082108114156200016557634e487b7160e01b600052602260045260246000fd5b50919050565b61194f806200017b6000396000f3fe6080604052600436106100dd5760003560e01c806370a082311161007f578063b88d4fde11610059578063b88d4fde1461024b578063c87b56dd1461026b578063d178bd731461028b578063e985e9c51461029e576100dd565b806370a08231146101e957806395d89b4114610216578063a22cb4651461022b576100dd565b8063095ea7b3116100bb578063095ea7b31461016757806323b872dd1461018957806342842e0e146101a95780636352211e146101c9576100dd565b806301ffc9a7146100e257806306fdde0314610118578063081812fc1461013a575b600080fd5b3480156100ee57600080fd5b506101026100fd366004611174565b6102be565b60405161010f91906112b6565b60405180910390f35b34801561012457600080fd5b5061012d610306565b60405161010f91906112c1565b34801561014657600080fd5b5061015a6101553660046111f2565b610398565b60405161010f9190611265565b34801561017357600080fd5b5061018761018236600461114b565b6103e4565b005b34801561019557600080fd5b506101876101a436600461105d565b61047c565b3480156101b557600080fd5b506101876101c436600461105d565b6104b4565b3480156101d557600080fd5b5061015a6101e43660046111f2565b6104cf565b3480156101f557600080fd5b50610209610204366004611011565b610504565b60405161010f91906117dc565b34801561022257600080fd5b5061012d610548565b34801561023757600080fd5b50610187610246366004611111565b610557565b34801561025757600080fd5b50610187610266366004611098565b61056d565b34801561027757600080fd5b5061012d6102863660046111f2565b6105ac565b6102096102993660046111ac565b6106cd565b3480156102aa57600080fd5b506101026102b936600461102b565b61074d565b60006001600160e01b031982166380ac58cd60e01b14806102ef57506001600160e01b03198216635b5e139f60e01b145b806102fe57506102fe8261077b565b90505b919050565b60606000805461031590611854565b80601f016020809104026020016040519081016040528092919081815260200182805461034190611854565b801561038e5780601f106103635761010080835404028352916020019161038e565b820191906000526020600020905b81548152906001019060200180831161037157829003601f168201915b5050505050905090565b60006103a382610794565b6103c85760405162461bcd60e51b81526004016103bf90611666565b60405180910390fd5b506000908152600460205260409020546001600160a01b031690565b60006103ef826104cf565b9050806001600160a01b0316836001600160a01b031614156104235760405162461bcd60e51b81526004016103bf9061174a565b806001600160a01b03166104356107b1565b6001600160a01b031614806104515750610451816102b96107b1565b61046d5760405162461bcd60e51b81526004016103bf906114a2565b61047783836107b5565b505050565b61048d6104876107b1565b82610823565b6104a95760405162461bcd60e51b81526004016103bf9061178b565b6104778383836108a0565b6104778383836040518060200160405280600081525061056d565b6000818152600260205260408120546001600160a01b0316806102fe5760405162461bcd60e51b81526004016103bf90611549565b60006001600160a01b03821661052c5760405162461bcd60e51b81526004016103bf906114ff565b506001600160a01b031660009081526003602052604090205490565b60606001805461031590611854565b6105696105626107b1565b83836109cd565b5050565b61057e6105786107b1565b83610823565b61059a5760405162461bcd60e51b81526004016103bf9061178b565b6105a684848484610a70565b50505050565b60606105b782610794565b6105d35760405162461bcd60e51b81526004016103bf90611615565b600082815260066020526040812080546105ec90611854565b80601f016020809104026020016040519081016040528092919081815260200182805461061890611854565b80156106655780601f1061063a57610100808354040283529160200191610665565b820191906000526020600020905b81548152906001019060200180831161064857829003601f168201915b505050505090506000610676610aa3565b905080516000141561068a57509050610301565b8151156106bc5780826040516020016106a4929190611236565b60405160208183030381529060405292505050610301565b6106c584610ab5565b949350505050565b60006106d96007610b38565b6008546106e66007610b41565b11156107045760405162461bcd60e51b81526004016103bf9061140f565b346706f05b59d3b200001461072b5760405162461bcd60e51b81526004016103bf90611326565b60006107376007610b41565b90506107433382610b45565b6102fe8184610b5f565b6001600160a01b03918216600090815260056020908152604080832093909416825291909152205460ff1690565b6001600160e01b031981166301ffc9a760e01b14919050565b6000908152600260205260409020546001600160a01b0316151590565b3390565b600081815260046020526040902080546001600160a01b0319166001600160a01b03841690811790915581906107ea826104cf565b6001600160a01b03167f8c5be1e5ebec7d5bd14f71427d1e84f3dd0314c0f7b2291e5b200ac8c7c3b92560405160405180910390a45050565b600061082e82610794565b61084a5760405162461bcd60e51b81526004016103bf90611456565b6000610855836104cf565b9050806001600160a01b0316846001600160a01b031614806108905750836001600160a01b031661088584610398565b6001600160a01b0316145b806106c557506106c5818561074d565b826001600160a01b03166108b3826104cf565b6001600160a01b0316146108d95760405162461bcd60e51b81526004016103bf906116b2565b6001600160a01b0382166108ff5760405162461bcd60e51b81526004016103bf90611394565b61090a838383610477565b6109156000826107b5565b6001600160a01b038316600090815260036020526040812080546001929061093e908490611811565b90915550506001600160a01b038216600090815260036020526040812080546001929061096c9084906117e5565b909155505060008181526002602052604080822080546001600160a01b0319166001600160a01b0386811691821790925591518493918716917fddf252ad1be2c89b69c2b068fc378daa952ba7f163c4a11628f55a4df523b3ef91a4505050565b816001600160a01b0316836001600160a01b031614156109ff5760405162461bcd60e51b81526004016103bf906113d8565b6001600160a01b0383811660008181526005602090815260408083209487168084529490915290819020805460ff1916851515179055517f17307eab39ab6107e8899845ad3d59bd9653f200f220920489ca2b5937696c3190610a639085906112b6565b60405180910390a3505050565b610a7b8484846108a0565b610a8784848484610ba3565b6105a65760405162461bcd60e51b81526004016103bf906112d4565b60408051602081019091526000815290565b6060610ac082610794565b610adc5760405162461bcd60e51b81526004016103bf906116fb565b6000610ae6610aa3565b90506000815111610b065760405180602001604052806000815250610b31565b80610b1084610cbe565b604051602001610b21929190611236565b6040516020818303038152906040525b9392505050565b80546001019055565b5490565b610569828260405180602001604052806000815250610dd9565b610b6882610794565b610b845760405162461bcd60e51b81526004016103bf90611592565b6000828152600660209081526040909120825161047792840190610ef1565b6000610bb7846001600160a01b0316610e0c565b15610cb357836001600160a01b031663150b7a02610bd36107b1565b8786866040518563ffffffff1660e01b8152600401610bf59493929190611279565b602060405180830381600087803b158015610c0f57600080fd5b505af1925050508015610c3f575060408051601f3d908101601f19168201909252610c3c91810190611190565b60015b610c99573d808015610c6d576040519150601f19603f3d011682016040523d82523d6000602084013e610c72565b606091505b508051610c915760405162461bcd60e51b81526004016103bf906112d4565b805181602001fd5b6001600160e01b031916630a85bd0160e11b1490506106c5565b506001949350505050565b606081610ce357506040805180820190915260018152600360fc1b6020820152610301565b8160005b8115610d0d5780610cf78161188f565b9150610d069050600a836117fd565b9150610ce7565b60008167ffffffffffffffff811115610d3657634e487b7160e01b600052604160045260246000fd5b6040519080825280601f01601f191660200182016040528015610d60576020820181803683370190505b5090505b84156106c557610d75600183611811565b9150610d82600a866118aa565b610d8d9060306117e5565b60f81b818381518110610db057634e487b7160e01b600052603260045260246000fd5b60200101906001600160f81b031916908160001a905350610dd2600a866117fd565b9450610d64565b610de38383610e12565b610df06000848484610ba3565b6104775760405162461bcd60e51b81526004016103bf906112d4565b3b151590565b6001600160a01b038216610e385760405162461bcd60e51b81526004016103bf906115e0565b610e4181610794565b15610e5e5760405162461bcd60e51b81526004016103bf9061135d565b610e6a60008383610477565b6001600160a01b0382166000908152600360205260408120805460019290610e939084906117e5565b909155505060008181526002602052604080822080546001600160a01b0319166001600160a01b03861690811790915590518392907fddf252ad1be2c89b69c2b068fc378daa952ba7f163c4a11628f55a4df523b3ef908290a45050565b828054610efd90611854565b90600052602060002090601f016020900481019282610f1f5760008555610f65565b82601f10610f3857805160ff1916838001178555610f65565b82800160010185558215610f65579182015b82811115610f65578251825591602001919060010190610f4a565b50610f71929150610f75565b5090565b5b80821115610f715760008155600101610f76565b600067ffffffffffffffff80841115610fa557610fa56118ea565b604051601f8501601f191681016020018281118282101715610fc957610fc96118ea565b604052848152915081838501861015610fe157600080fd5b8484602083013760006020868301015250509392505050565b80356001600160a01b038116811461030157600080fd5b600060208284031215611022578081fd5b610b3182610ffa565b6000806040838503121561103d578081fd5b61104683610ffa565b915061105460208401610ffa565b90509250929050565b600080600060608486031215611071578081fd5b61107a84610ffa565b925061108860208501610ffa565b9150604084013590509250925092565b600080600080608085870312156110ad578081fd5b6110b685610ffa565b93506110c460208601610ffa565b925060408501359150606085013567ffffffffffffffff8111156110e6578182fd5b8501601f810187136110f6578182fd5b61110587823560208401610f8a565b91505092959194509250565b60008060408385031215611123578182fd5b61112c83610ffa565b915060208301358015158114611140578182fd5b809150509250929050565b6000806040838503121561115d578182fd5b61116683610ffa565b946020939093013593505050565b600060208284031215611185578081fd5b8135610b3181611900565b6000602082840312156111a1578081fd5b8151610b3181611900565b6000602082840312156111bd578081fd5b813567ffffffffffffffff8111156111d3578182fd5b8201601f810184136111e3578182fd5b6106c584823560208401610f8a565b600060208284031215611203578081fd5b5035919050565b60008151808452611222816020860160208601611828565b601f01601f19169290920160200192915050565b60008351611248818460208801611828565b83519083019061125c818360208801611828565b01949350505050565b6001600160a01b0391909116815260200190565b6001600160a01b03858116825284166020820152604081018390526080606082018190526000906112ac9083018461120a565b9695505050505050565b901515815260200190565b600060208252610b31602083018461120a565b60208082526032908201527f4552433732313a207472616e7366657220746f206e6f6e20455243373231526560408201527131b2b4bb32b91034b6b83632b6b2b73a32b960711b606082015260800190565b60208082526017908201527f53656e642074686520636f727265637420616d6f756e74000000000000000000604082015260600190565b6020808252601c908201527f4552433732313a20746f6b656e20616c7265616479206d696e74656400000000604082015260600190565b60208082526024908201527f4552433732313a207472616e7366657220746f20746865207a65726f206164646040820152637265737360e01b606082015260800190565b60208082526019908201527f4552433732313a20617070726f766520746f2063616c6c657200000000000000604082015260600190565b60208082526027908201527f4e6f206d6f7265205370656369616c204e4654277320617661696c61626c65206040820152661d1bc81b5a5b9d60ca1b606082015260800190565b6020808252602c908201527f4552433732313a206f70657261746f7220717565727920666f72206e6f6e657860408201526b34b9ba32b73a103a37b5b2b760a11b606082015260800190565b60208082526038908201527f4552433732313a20617070726f76652063616c6c6572206973206e6f74206f7760408201527f6e6572206e6f7220617070726f76656420666f7220616c6c0000000000000000606082015260800190565b6020808252602a908201527f4552433732313a2062616c616e636520717565727920666f7220746865207a65604082015269726f206164647265737360b01b606082015260800190565b60208082526029908201527f4552433732313a206f776e657220717565727920666f72206e6f6e657869737460408201526832b73a103a37b5b2b760b91b606082015260800190565b6020808252602e908201527f45524337323155524953746f726167653a2055524920736574206f66206e6f6e60408201526d32bc34b9ba32b73a103a37b5b2b760911b606082015260800190565b6020808252818101527f4552433732313a206d696e7420746f20746865207a65726f2061646472657373604082015260600190565b60208082526031908201527f45524337323155524953746f726167653a2055524920717565727920666f72206040820152703737b732bc34b9ba32b73a103a37b5b2b760791b606082015260800190565b6020808252602c908201527f4552433732313a20617070726f76656420717565727920666f72206e6f6e657860408201526b34b9ba32b73a103a37b5b2b760a11b606082015260800190565b60208082526029908201527f4552433732313a207472616e73666572206f6620746f6b656e2074686174206960408201526839903737ba1037bbb760b91b606082015260800190565b6020808252602f908201527f4552433732314d657461646174613a2055524920717565727920666f72206e6f60408201526e3732bc34b9ba32b73a103a37b5b2b760891b606082015260800190565b60208082526021908201527f4552433732313a20617070726f76616c20746f2063757272656e74206f776e656040820152603960f91b606082015260800190565b60208082526031908201527f4552433732313a207472616e736665722063616c6c6572206973206e6f74206f6040820152701ddb995c881b9bdc88185c1c1c9bdd9959607a1b606082015260800190565b90815260200190565b600082198211156117f8576117f86118be565b500190565b60008261180c5761180c6118d4565b500490565b600082821015611823576118236118be565b500390565b60005b8381101561184357818101518382015260200161182b565b838111156105a65750506000910152565b60028104600182168061186857607f821691505b6020821081141561188957634e487b7160e01b600052602260045260246000fd5b50919050565b60006000198214156118a3576118a36118be565b5060010190565b6000826118b9576118b96118d4565b500690565b634e487b7160e01b600052601160045260246000fd5b634e487b7160e01b600052601260045260246000fd5b634e487b7160e01b600052604160045260246000fd5b6001600160e01b03198116811461191657600080fd5b5056fea26469706673582212204a762ae7a57eff3cd526d8294e5a4f248ab58a6bee39c1154b562d289c8102f964736f6c63430008000033",
    "linkReferences": {},
    "deployedLinkReferences": {}
}